{
  "contractName": "AccessRequest",
  "abi": [
    {
      "inputs": [
        {
          "internalType": "address",
          "name": "",
          "type": "address"
        },
        {
          "internalType": "uint256",
          "name": "",
          "type": "uint256"
        }
      ],
      "name": "request",
      "outputs": [
        {
          "internalType": "uint256",
          "name": "id",
          "type": "uint256"
        },
        {
          "internalType": "string",
          "name": "fileid",
          "type": "string"
        },
        {
          "internalType": "string",
          "name": "useremail",
          "type": "string"
        },
        {
          "internalType": "string",
          "name": "textcontent",
          "type": "string"
        },
        {
          "internalType": "string",
          "name": "receiveremail",
          "type": "string"
        },
        {
          "internalType": "string",
          "name": "filekey",
          "type": "string"
        },
        {
          "internalType": "string",
          "name": "datetime",
          "type": "string"
        },
        {
          "internalType": "string",
          "name": "status",
          "type": "string"
        }
      ],
      "stateMutability": "view",
      "type": "function",
      "constant": true
    },
    {
      "inputs": [
        {
          "internalType": "string",
          "name": "__fileid",
          "type": "string"
        },
        {
          "internalType": "string",
          "name": "__useremail",
          "type": "string"
        },
        {
          "internalType": "string",
          "name": "__textcontent",
          "type": "string"
        },
        {
          "internalType": "string",
          "name": "__receiveremail",
          "type": "string"
        },
        {
          "internalType": "string",
          "name": "__filekey",
          "type": "string"
        },
        {
          "internalType": "string",
          "name": "__datetime",
          "type": "string"
        },
        {
          "internalType": "string",
          "name": "__status",
          "type": "string"
        }
      ],
      "name": "addRequest",
      "outputs": [],
      "stateMutability": "nonpayable",
      "type": "function"
    },
    {
      "inputs": [
        {
          "internalType": "string",
          "name": "_email",
          "type": "string"
        },
        {
          "internalType": "string",
          "name": "__status",
          "type": "string"
        }
      ],
      "name": "getRequestsFromOther",
      "outputs": [
        {
          "internalType": "uint256[]",
          "name": "",
          "type": "uint256[]"
        },
        {
          "internalType": "string[]",
          "name": "",
          "type": "string[]"
        },
        {
          "internalType": "string[]",
          "name": "",
          "type": "string[]"
        },
        {
          "internalType": "string[]",
          "name": "",
          "type": "string[]"
        },
        {
          "internalType": "string[]",
          "name": "",
          "type": "string[]"
        },
        {
          "internalType": "string[]",
          "name": "",
          "type": "string[]"
        },
        {
          "internalType": "string[]",
          "name": "",
          "type": "string[]"
        },
        {
          "internalType": "string[]",
          "name": "",
          "type": "string[]"
        }
      ],
      "stateMutability": "view",
      "type": "function",
      "constant": true
    }
  ],
  "bytecode": "0x60806040523461001f57610011610024565b611554610030823961155490f35b61002a565b60405190565b600080fdfe60806040526004361015610013575b6109ee565b61001e60003561004d565b8063206edd7d14610048578063c8c01a55146100435763e0478f2d0361000e576109ae565b61072e565b6102ae565b7c0100000000000000000000000000000000000000000000000000000000900490565b60405190565b600080fd5b600080fd5b600080fd5b600080fd5b600080fd5b601f801991011690565b7f4e487b7100000000000000000000000000000000000000000000000000000000600052604160045260246000fd5b906100d29061008f565b810190811067ffffffffffffffff8211176100ec57604052565b610099565b906101046100fd610070565b92836100c8565b565b67ffffffffffffffff81116101245761012060209161008f565b0190565b610099565b90826000939282370152565b9092919261014a61014582610106565b6100f1565b938185526020850190828401116101665761016492610129565b565b61008a565b9080601f830112156101895781602061018693359101610135565b90565b610085565b9060e0828203126102a357600082013567ffffffffffffffff811161029e57816101b991840161016b565b92602083013567ffffffffffffffff811161029957826101da91850161016b565b92604081013567ffffffffffffffff811161029457836101fb91830161016b565b92606082013567ffffffffffffffff811161028f578161021c91840161016b565b92608083013567ffffffffffffffff811161028a578261023d91850161016b565b9260a081013567ffffffffffffffff8111610285578361025e91830161016b565b9260c082013567ffffffffffffffff81116102805761027d920161016b565b90565b610080565b610080565b610080565b610080565b610080565b610080565b610080565b61007b565b60000190565b346102e3576102cd6102c136600461018e565b95949094939193610e68565b6102d5610070565b806102df816102a8565b0390f35b610076565b73ffffffffffffffffffffffffffffffffffffffff1690565b61030a906102e8565b90565b61031681610301565b0361031d57565b600080fd5b9050359061032f8261030d565b565b90565b61033d81610331565b0361034457565b600080fd5b9050359061035682610334565b565b9190604083820312610381578061037561037e9260008601610322565b93602001610349565b90565b61007b565b90565b61039d6103986103a2926102e8565b610386565b6102e8565b90565b6103ae90610389565b90565b6103ba906103a5565b90565b906103c7906103b1565b600052602052604060002090565b7f4e487b7100000000000000000000000000000000000000000000000000000000600052603260045260246000fd5b5490565b600052602060002090565b61041c81610404565b8210156104375761042e600891610408565b91020190600090565b6103d5565b6001900490565b90565b6104526104579161043c565b610443565b90565b6104649054610446565b90565b7f4e487b7100000000000000000000000000000000000000000000000000000000600052602260045260246000fd5b90600160028304921680156104b6575b60208310146104b157565b610467565b91607f16916104a6565b60209181520190565b600052602060002090565b90600092918054906104ef6104e883610496565b80946104c0565b91600181169081600014610548575060011461050b575b505050565b61051891929394506104c9565b916000925b8184106105305750500190388080610506565b6001816020929593955484860152019101929061051d565b92949550505060ff1916825215156020020190388080610506565b9061056d916104d4565b90565b9061059061058992610580610070565b93848092610563565b03836100c8565b565b61059d9060006103bd565b906105a782610404565b811015610622576105b791610413565b50906105c56000830161045a565b916105d260018201610570565b916105df60028301610570565b916105ec60038201610570565b916105f960048301610570565b9161060660058201610570565b9161061f600761061860068501610570565b9301610570565b90565b600080fd5b61063090610331565b9052565b5190565b60209181520190565b60005b838110610655575050906000910152565b806020918301518185015201610644565b61068561068e6020936106939361067c81610634565b93848093610638565b95869101610641565b61008f565b0190565b9693946106f361071d966106e561070f966106d66107019661072b9e9c988e6106c96101008201936000830190610627565b6020818403910152610666565b908c6040818403910152610666565b908a820360608c0152610666565b9088820360808a0152610666565b9086820360a0880152610666565b9084820360c0860152610666565b9160e0818403910152610666565b90565b346107695761076561074a610744366004610358565b90610592565b9461075c989698949194939293610070565b98899889610697565b0390f35b610076565b9190916040818403126107c757600081013567ffffffffffffffff81116107c2578361079b91830161016b565b92602082013567ffffffffffffffff81116107bd576107ba920161016b565b90565b610080565b610080565b61007b565b5190565b60209181520190565b60200190565b6107e890610331565b9052565b906107f9816020936107df565b0190565b60200190565b9061082061081a610813846107cc565b80936107d0565b926107d9565b9060005b8181106108315750505090565b90919261084a61084460019286516107ec565b946107fd565b9101919091610824565b5190565b60209181520190565b60200190565b61088661088f6020936108949361087d81610634565b938480936104c0565b95869101610641565b61008f565b0190565b906108a291610867565b90565b60200190565b906108bf6108b883610854565b8092610858565b90816108d060208302840194610861565b926000915b8383106108e457505050505090565b9091929394602061090661090083856001950387528951610898565b976108a5565b93019301919392906108d5565b96939461097361099d9661096561098f966109568c6109ab9e9c98610948610981996101008401908482036000860152610803565b9160208184039101526108ab565b908c60408184039101526108ab565b908a820360608c01526108ab565b9088820360808a01526108ab565b9086820360a08801526108ab565b9084820360c08601526108ab565b9160e08184039101526108ab565b90565b346109e9576109e56109ca6109c436600461076e565b90611182565b946109dc989698949194939293610070565b98899889610913565b0390f35b610076565b600080fd5b90565b610a0a610a05610a0f926109f3565b610386565b610331565b90565b7f4e487b7100000000000000000000000000000000000000000000000000000000600052601160045260246000fd5b610a50610a5691939293610331565b92610331565b8201809211610a6157565b610a12565b90565b610a746101006100f1565b90565b90610a8190610331565b9052565b52565b600052602060002090565b5490565b610aa081610a93565b821015610abb57610ab2600891610a88565b91020190600090565b6103d5565b7f4e487b7100000000000000000000000000000000000000000000000000000000600052600060045260246000fd5b610af99051610331565b90565b60010290565b90610b0f60001991610afc565b9181191691161790565b610b2d610b28610b3292610331565b610386565b610331565b90565b90565b90610b4d610b48610b5492610b19565b610b35565b8254610b02565b9055565b5190565b601f602091010490565b60020a0290565b91906008610b89910291610b8360001984610b66565b92610b66565b9181191691161790565b9190610ba9610ba4610bb193610b19565b610b35565b908354610b6d565b9055565b600090565b610bcc91610bc6610bb5565b91610b93565b565b5b818110610bda575050565b80610be86000600193610bba565b01610bcf565b9190601f8111610bfe575b505050565b610c0a610c2f936104c9565b906020610c1684610b5c565b83019310610c37575b610c2890610b5c565b0190610bce565b388080610bf9565b9150610c2881929050610c1f565b60020a900490565b90610c5e9060001990600802610c45565b191690565b81610c6d91610c4d565b906002021790565b90610c7f81610634565b9067ffffffffffffffff8211610d4157610ca382610c9d8554610496565b85610bee565b602090601f8311600114610cd857918091610cc793600092610ccc575b5050610c63565b90555b565b90915001513880610cc0565b601f19831691610ce7856104c9565b9260005b818110610d2957509160029391856001969410610d0f575b50505002019055610cca565b610d1f910151601f841690610c4d565b9055388080610d03565b91936020600181928787015181550195019201610ceb565b610099565b90610d5091610c75565b565b90610e1560e06007610e1b94610d7760008201610d7160008801610aef565b90610b38565b610d9060018201610d8a60208801610b58565b90610d46565b610da960028201610da360408801610b58565b90610d46565b610dc260038201610dbc60608801610b58565b90610d46565b610ddb60048201610dd560808801610b58565b90610d46565b610df460058201610dee60a08801610b58565b90610d46565b610e0d60068201610e0760c08801610b58565b90610d46565b019201610b58565b90610d46565b565b9190610e2e57610e2c91610d52565b565b610ac0565b9081549168010000000000000000831015610e635782610e5b916001610e6195018155610a97565b90610e1d565b565b610099565b94919592939093600033610e7b916103bd565b610e8490610404565b6001610e8f906109f6565b610e9891610a41565b96600033610ea5916103bd565b610eae90610a66565b979695909192939495610ebf610a69565b976000890190610ece91610a77565b6020880190610edc91610a85565b6040870190610eea91610a85565b6060860190610ef891610a85565b6080850190610f0691610a85565b60a0840190610f1491610a85565b60c0830190610f2291610a85565b60e0820190610f3091610a85565b610f3991610e33565b565b606090565b606090565b67ffffffffffffffff8111610f5d5760208091020190565b610099565b90610f74610f6f83610f45565b6100f1565b918252565b369037565b90610fa3610f8b83610f62565b92602080610f998693610f45565b9201910390610f79565b565b67ffffffffffffffff8111610fbd5760208091020190565b610099565b90610fd4610fcf83610fa5565b6100f1565b918252565b606090565b60005b828110610fed57505050565b602090610ff8610fd9565b8184015201610fe1565b9061102761100f83610fc2565b9260208061101d8693610fa5565b9201910390610fde565b565b90565b61104061103b61104592611029565b610386565b610331565b90565b61105190610331565b60001981146110605760010190565b610a12565b90565b61107e9160208201916000818403910152610666565b90565b60200190565b5190565b90600092918054906110a661109f83610496565b8094610638565b916001811690816000146110ff57506001146110c2575b505050565b6110cf91929394506104c9565b916000925b8184106110e757505001903880806110bd565b600181602092959395548486015201910192906110d4565b92949550505060ff19168252151560200201903880806110bd565b611130916020820191600081840391015261108b565b90565b90565b90611140826107cc565b811015611151576020809102010190565b6103d5565b9061116082610854565b811015611171576020809102010190565b6103d5565b61117f90610570565b90565b91909161118d610f3b565b50611196610f40565b5061119f610f40565b506111a8610f40565b506111b1610f40565b506111ba610f40565b506111c3610f40565b506111cc610f40565b506111e16111dc600033906103bd565b610404565b906111eb82610f7e565b916111f581611002565b916111ff82611002565b9361120983611002565b9161121384611002565b9261121d85611002565b9561122786611002565b9061123187611002565b9761123c600061102c565b5b8061126361125d611258611253600033906103bd565b610404565b610331565b91610331565b10156114ff576113c79089888f8e8c8b9261133d61134c6112b46112c361129f611299611292600033906103bd565b8d90610413565b50611065565b976112a8610070565b92839160208301611068565b602082018103825203826100c8565b6112d56112cf82611087565b91611081565b206113276113216112fa61130960028b016112ee610070565b9283916020830161111a565b602082018103825203826100c8565b61131b61131582611087565b91611081565b20611133565b91611133565b1492611331610070565b92839160208301611068565b602082018103825203826100c8565b61135e61135882611087565b91611081565b206113b06113aa61138361139260078901611377610070565b9283916020830161111a565b602082018103825203826100c8565b6113a461139e82611087565b91611081565b20611133565b91611133565b14816114f7575b506113cc575b5050505050611048565b61123d565b6114eb9461143c611481936113f96007976113f46113ec60008a0161045a565b869092611136565b610a77565b61141b600187018d61140b8692611176565b6114158383611156565b52611156565b5150600286019061142c8492611176565b6114368383611156565b52611156565b5150611460600385018d6114508492611176565b61145a8383611156565b52611156565b515061147160048501929192611176565b61147b8383611156565b52611156565b51506114a78d6005830190611497899192611176565b6114a18383611156565b52611156565b51506114cd8d60068301906114bd8b9192611176565b6114c78383611156565b52611156565b5150018c6114db8d92611176565b6114e58383611156565b52611156565b51508988388e8c6113bd565b9050386113b7565b509795989a50939198925094509197969594939291979695949392919056fea2646970667358221220a501cc1c972a3f534d9b3cd61f9c551091e59e7bd2af8b6fc4d4c8b903c5d70864736f6c63430008150033",
  "immutableReferences": {},
  "source": "// SPDX-License-Identifier: MIT\r\npragma solidity ^0.8.21;\r\n\r\ncontract AccessRequest {\r\n    struct Request {\r\n        uint256 id;\r\n        string fileid;\r\n        string useremail;\r\n        string textcontent;\r\n        string receiveremail;\r\n        string filekey;\r\n        string datetime;\r\n        string status;\r\n    }\r\n\r\n    mapping(address => Request[]) public request;\r\n\r\n    function addRequest(\r\n        string memory __fileid,\r\n        string memory __useremail,\r\n        string memory __textcontent,\r\n        string memory __receiveremail,\r\n        string memory __filekey,\r\n        string memory __datetime,\r\n        string memory __status\r\n    ) public {\r\n        uint256 index = request[msg.sender].length + 1;\r\n        request[msg.sender].push(\r\n            Request(\r\n                index,\r\n                __fileid,\r\n                __useremail,\r\n                __textcontent,\r\n                __receiveremail,\r\n                __filekey,\r\n                __datetime,\r\n                __status\r\n            )\r\n        );\r\n    }\r\n\r\n    function getRequestsFromOther(\r\n        string memory _email,\r\n        string memory __status\r\n    )\r\n        public\r\n        view\r\n        returns (\r\n            uint256[] memory,\r\n            string[] memory,\r\n            string[] memory,\r\n            string[] memory,\r\n            string[] memory,\r\n            string[] memory,\r\n            string[] memory,\r\n            string[] memory\r\n        )\r\n    {\r\n        uint256 count = request[msg.sender].length;\r\n\r\n        uint256[] memory _id = new uint256[](count);\r\n        string[] memory _fileid = new string[](count);\r\n        string[] memory _useremail = new string[](count);\r\n        string[] memory _textcontent = new string[](count);\r\n        string[] memory _receiveremail = new string[](count);\r\n        string[] memory _filekey = new string[](count);\r\n        string[] memory _datetime = new string[](count);\r\n        string[] memory _status = new string[](count);\r\n\r\n        for (uint256 i = 0; i < request[msg.sender].length; i++) {\r\n            Request storage requests3 = request[msg.sender][i];\r\n\r\n            bool emailCheck = keccak256(abi.encode(_email)) ==\r\n                keccak256(abi.encode(requests3.useremail));\r\n\r\n            bool statusCheck = keccak256(abi.encode(__status)) ==\r\n                keccak256(abi.encode(requests3.status));\r\n\r\n            if (emailCheck && statusCheck) {\r\n                _id[count] = requests3.id;\r\n                _fileid[count] = requests3.fileid;\r\n                _useremail[count] = requests3.useremail;\r\n                _textcontent[count] = requests3.textcontent;\r\n                _receiveremail[count] = requests3.receiveremail;\r\n                _filekey[count] = requests3.filekey;\r\n                _datetime[count] = requests3.datetime;\r\n                _status[count] = requests3.status;\r\n            }\r\n        }\r\n\r\n        return (\r\n            _id,\r\n            _fileid,\r\n            _useremail,\r\n            _textcontent,\r\n            _receiveremail,\r\n            _filekey,\r\n            _datetime,\r\n            _status\r\n        );\r\n    }\r\n}\r\n",
  "sourcePath": "C:\\Users\\dheve\\OneDrive\\Desktop\\Code (2)\\Code\\Code\\Blocks\\contracts\\AccessRequest.sol",
  "compiler": {
    "name": "solc",
    "version": "0.8.21+commit.d9974bed.Emscripten.clang"
  },
  "schemaVersion": "3.4.16",
  "updatedAt": "2025-10-26T13:28:48.906Z",
  "networkType": "ethereum",
  "devdoc": {
    "kind": "dev",
    "methods": {},
    "version": 1
  },
  "userdoc": {
    "kind": "user",
    "methods": {},
    "version": 1
  }
}