{
  "contractName": "FileRequest",
  "abi": [
    {
      "inputs": [
        {
          "internalType": "address",
          "name": "",
          "type": "address"
        },
        {
          "internalType": "uint256",
          "name": "",
          "type": "uint256"
        }
      ],
      "name": "fileStore",
      "outputs": [
        {
          "internalType": "uint256",
          "name": "id",
          "type": "uint256"
        },
        {
          "internalType": "string",
          "name": "useremail",
          "type": "string"
        },
        {
          "internalType": "string",
          "name": "textcontent",
          "type": "string"
        },
        {
          "internalType": "string",
          "name": "filekey",
          "type": "string"
        },
        {
          "internalType": "string",
          "name": "datetime",
          "type": "string"
        },
        {
          "internalType": "string",
          "name": "encfilepath",
          "type": "string"
        },
        {
          "internalType": "string",
          "name": "decfilepath",
          "type": "string"
        }
      ],
      "stateMutability": "view",
      "type": "function",
      "constant": true
    },
    {
      "inputs": [
        {
          "internalType": "string",
          "name": "_useremail",
          "type": "string"
        },
        {
          "internalType": "string",
          "name": "_textcontent",
          "type": "string"
        },
        {
          "internalType": "string",
          "name": "_filekey",
          "type": "string"
        },
        {
          "internalType": "string",
          "name": "_datetime",
          "type": "string"
        },
        {
          "internalType": "string",
          "name": "_encfilepath",
          "type": "string"
        },
        {
          "internalType": "string",
          "name": "_decfilepath",
          "type": "string"
        }
      ],
      "name": "addFiles",
      "outputs": [],
      "stateMutability": "nonpayable",
      "type": "function"
    },
    {
      "inputs": [
        {
          "internalType": "string",
          "name": "_email",
          "type": "string"
        }
      ],
      "name": "viewFiles",
      "outputs": [
        {
          "internalType": "uint256[]",
          "name": "",
          "type": "uint256[]"
        },
        {
          "internalType": "string[]",
          "name": "",
          "type": "string[]"
        },
        {
          "internalType": "string[]",
          "name": "",
          "type": "string[]"
        },
        {
          "internalType": "string[]",
          "name": "",
          "type": "string[]"
        },
        {
          "internalType": "string[]",
          "name": "",
          "type": "string[]"
        },
        {
          "internalType": "string[]",
          "name": "",
          "type": "string[]"
        },
        {
          "internalType": "string[]",
          "name": "",
          "type": "string[]"
        }
      ],
      "stateMutability": "view",
      "type": "function",
      "constant": true
    }
  ],
  "bytecode": "0x60806040523461001f57610011610024565b6114a161003082396114a190f35b61002a565b60405190565b600080fdfe60806040526004361015610013575b610964565b61001e60003561004d565b806329925a1414610048578063e4ecfdc3146100435763e6de4dd30361000e57610928565b6106e6565b610288565b7c0100000000000000000000000000000000000000000000000000000000900490565b60405190565b600080fd5b600080fd5b600080fd5b600080fd5b600080fd5b601f801991011690565b7f4e487b7100000000000000000000000000000000000000000000000000000000600052604160045260246000fd5b906100d29061008f565b810190811067ffffffffffffffff8211176100ec57604052565b610099565b906101046100fd610070565b92836100c8565b565b67ffffffffffffffff81116101245761012060209161008f565b0190565b610099565b90826000939282370152565b9092919261014a61014582610106565b6100f1565b938185526020850190828401116101665761016492610129565b565b61008a565b9080601f830112156101895781602061018693359101610135565b90565b610085565b9160c08383031261027d57600083013567ffffffffffffffff811161027857826101b991850161016b565b92602081013567ffffffffffffffff811161027357836101da91830161016b565b92604082013567ffffffffffffffff811161026e57816101fb91840161016b565b92606083013567ffffffffffffffff8111610269578261021c91850161016b565b92608081013567ffffffffffffffff8111610264578361023d91830161016b565b9260a082013567ffffffffffffffff811161025f5761025c920161016b565b90565b610080565b610080565b610080565b610080565b610080565b610080565b61007b565b60000190565b346102bd576102a761029b36600461018e565b94939093929192610dc4565b6102af610070565b806102b981610282565b0390f35b610076565b73ffffffffffffffffffffffffffffffffffffffff1690565b6102e4906102c2565b90565b6102f0816102db565b036102f757565b600080fd5b90503590610309826102e7565b565b90565b6103178161030b565b0361031e57565b600080fd5b905035906103308261030e565b565b919060408382031261035b578061034f61035892600086016102fc565b93602001610323565b90565b61007b565b90565b61037761037261037c926102c2565b610360565b6102c2565b90565b61038890610363565b90565b6103949061037f565b90565b906103a19061038b565b600052602052604060002090565b7f4e487b7100000000000000000000000000000000000000000000000000000000600052603260045260246000fd5b5490565b600052602060002090565b6103f6816103de565b821015610411576104086007916103e2565b91020190600090565b6103af565b6001900490565b90565b61042c61043191610416565b61041d565b90565b61043e9054610420565b90565b7f4e487b7100000000000000000000000000000000000000000000000000000000600052602260045260246000fd5b9060016002830492168015610490575b602083101461048b57565b610441565b91607f1691610480565b60209181520190565b600052602060002090565b90600092918054906104c96104c283610470565b809461049a565b9160018116908160001461052257506001146104e5575b505050565b6104f291929394506104a3565b916000925b81841061050a57505001903880806104e0565b600181602092959395548486015201910192906104f7565b92949550505060ff19168252151560200201903880806104e0565b90610547916104ae565b90565b9061056a6105639261055a610070565b9384809261053d565b03836100c8565b565b610577906000610397565b90610581826103de565b8110156105ee57610591916103ed565b5061059e60008201610434565b916105ab6001830161054a565b916105b86002820161054a565b916105c56003830161054a565b916105d26004820161054a565b916105eb60066105e46005850161054a565b930161054a565b90565b600080fd5b6105fc9061030b565b9052565b5190565b60209181520190565b60005b838110610621575050906000910152565b806020918301518185015201610610565b61065161065a60209361065f9361064881610600565b93848093610604565b9586910161060d565b61008f565b0190565b95926106d5946106ab6106b99261069d8a6106c79761068f6106e39e9c98600060e085019401906105f3565b8c6020818403910152610632565b908a820360408c0152610632565b9088820360608a0152610632565b908682036080880152610632565b9084820360a0860152610632565b9160c0818403910152610632565b90565b3461071e5761071a6107026106fc366004610332565b9061056c565b93610711979597939193610070565b97889788610663565b0390f35b610076565b9060208282031261075457600082013567ffffffffffffffff811161074f5761074c920161016b565b90565b610080565b61007b565b5190565b60209181520190565b60200190565b6107759061030b565b9052565b906107868160209361076c565b0190565b60200190565b906107ad6107a76107a084610759565b809361075d565b92610766565b9060005b8181106107be5750505090565b9091926107d76107d16001928651610779565b9461078a565b91019190916107b1565b5190565b60209181520190565b60200190565b61081361081c6020936108219361080a81610600565b9384809361049a565b9586910161060d565b61008f565b0190565b9061082f916107f4565b90565b60200190565b9061084c610845836107e1565b80926107e5565b908161085d602083028401946107ee565b926000915b83831061087157505050505090565b9091929394602061089361088d83856001950387528951610825565b97610832565b9301930191939290610862565b9592610917946108ed6108fb926108df610909966108d08c6109259e9c9860e08201916000818403910152610790565b908c6020818403910152610838565b908a820360408c0152610838565b9088820360608a0152610838565b908682036080880152610838565b9084820360a0860152610838565b9160c0818403910152610838565b90565b3461095f5761095b61094361093e366004610723565b6110ba565b93610952979597939193610070565b978897886108a0565b0390f35b610076565b600080fd5b90565b61098061097b61098592610969565b610360565b61030b565b90565b7f4e487b7100000000000000000000000000000000000000000000000000000000600052601160045260246000fd5b6109c66109cc9193929361030b565b9261030b565b82018092116109d757565b610988565b6109e660e06100f1565b90565b906109f39061030b565b9052565b52565b90565b600052602060002090565b5490565b610a1581610a08565b821015610a3057610a276007916109fd565b91020190600090565b6103af565b7f4e487b7100000000000000000000000000000000000000000000000000000000600052600060045260246000fd5b610a6e905161030b565b90565b60010290565b90610a8460001991610a71565b9181191691161790565b610aa2610a9d610aa79261030b565b610360565b61030b565b90565b90565b90610ac2610abd610ac992610a8e565b610aaa565b8254610a77565b9055565b5190565b601f602091010490565b60020a0290565b91906008610afe910291610af860001984610adb565b92610adb565b9181191691161790565b9190610b1e610b19610b2693610a8e565b610aaa565b908354610ae2565b9055565b600090565b610b4191610b3b610b2a565b91610b08565b565b5b818110610b4f575050565b80610b5d6000600193610b2f565b01610b44565b9190601f8111610b73575b505050565b610b7f610ba4936104a3565b906020610b8b84610ad1565b83019310610bac575b610b9d90610ad1565b0190610b43565b388080610b6e565b9150610b9d81929050610b94565b60020a900490565b90610bd39060001990600802610bba565b191690565b81610be291610bc2565b906002021790565b90610bf481610600565b9067ffffffffffffffff8211610cb657610c1882610c128554610470565b85610b63565b602090601f8311600114610c4d57918091610c3c93600092610c41575b5050610bd8565b90555b565b90915001513880610c35565b601f19831691610c5c856104a3565b9260005b818110610c9e57509160029391856001969410610c84575b50505002019055610c3f565b610c94910151601f841690610bc2565b9055388080610c78565b91936020600181928787015181550195019201610c60565b610099565b90610cc591610bea565b565b90610d7160c06006610d7794610cec60008201610ce660008801610a64565b90610aad565b610d0560018201610cff60208801610acd565b90610cbb565b610d1e60028201610d1860408801610acd565b90610cbb565b610d3760038201610d3160608801610acd565b90610cbb565b610d5060048201610d4a60808801610acd565b90610cbb565b610d6960058201610d6360a08801610acd565b90610cbb565b019201610acd565b90610cbb565b565b9190610d8a57610d8891610cc7565b565b610a35565b9081549168010000000000000000831015610dbf5782610db7916001610dbd95018155610a0c565b90610d79565b565b610099565b9194610e46600095610e3d610e5896610e34610e719a610e2b610e4f98610e22610e0b610dfb8f610df6903390610397565b6103de565b610e05600161096c565b906109b7565b9b91939597999b610e1a6109dc565b9e8f016109e9565b60208d016109f7565b60408b016109f7565b606089016109f7565b608087016109f7565b60a085016109f7565b60c083016109f7565b610e6c610e6760003390610397565b6109fa565b610d8f565b565b606090565b606090565b90565b610e94610e8f610e9992610e7d565b610360565b61030b565b90565b610ea59061030b565b6000198114610eb45760010190565b610988565b90565b610ed29160208201916000818403910152610632565b90565b60200190565b5190565b9060009291805490610efa610ef383610470565b8094610604565b91600181169081600014610f535750600114610f16575b505050565b610f2391929394506104a3565b916000925b818410610f3b5750500190388080610f11565b60018160209295939554848601520191019290610f28565b92949550505060ff1916825215156020020190388080610f11565b610f849160208201916000818403910152610edf565b90565b90565b67ffffffffffffffff8111610fa25760208091020190565b610099565b90610fb9610fb483610f8a565b6100f1565b918252565b369037565b90610fe8610fd083610fa7565b92602080610fde8693610f8a565b9201910390610fbe565b565b67ffffffffffffffff81116110025760208091020190565b610099565b9061101961101483610fea565b6100f1565b918252565b606090565b60005b82811061103257505050565b60209061103d61101e565b8184015201611026565b9061106c61105483611007565b926020806110628693610fea565b9201910390611023565b565b9061107882610759565b811015611089576020809102010190565b6103af565b90611098826107e1565b8110156110a9576020809102010190565b6103af565b6110b79061054a565b90565b906110c3610e73565b506110cc610e78565b506110d5610e78565b506110de610e78565b506110e7610e78565b506110f0610e78565b506110f9610e78565b506111046000610e80565b9161110f6000610e80565b5b8061113661113061112b61112660003390610397565b6103de565b61030b565b9161030b565b10156112125761115b61115561114e60003390610397565b83906103ed565b50610eb9565b6111e96111e36111bc6111cb600161118461119389611178610070565b92839160208301610ebc565b602082018103825203826100c8565b6111a561119f82610edb565b91610ed5565b2095016111b0610070565b92839160208301610f6e565b602082018103825203826100c8565b6111dd6111d782610edb565b91610ed5565b20610f87565b91610f87565b036111fd575b6111f890610e9c565b611110565b9261120a6111f891610e9c565b9390506111ef565b5061121c83610fc3565b9061122684611047565b9061123085611047565b9461123a81611047565b9361124482611047565b61125661125084611047565b93611047565b946112616000610e80565b5b8061128861128261127d61127860003390610397565b6103de565b61030b565b9161030b565b10156114535761134d906112b16112ab6112a460003390610397565b83906103ed565b50610eb9565b8b6112cd6112dc8a6112c1610070565b92839160208301610ebc565b602082018103825203826100c8565b6112ee6112e882610edb565b91610ed5565b2061134061133a61131361132260018701611307610070565b92839160208301610f6e565b602082018103825203826100c8565b61133461132e82610edb565b91610ed5565b20610f87565b91610f87565b03611352575b5050610e9c565b611262565b816113c060069261137d61136b600061144a9701610434565b6113788c9189909261106e565b6109e9565b61139f600184018961138f89926110ae565b611399838361108e565b5261108e565b515060028301906113b087926110ae565b6113ba838361108e565b5261108e565b51506113e4600382018d6113d487926110ae565b6113de838361108e565b5261108e565b515061140860048201886113f887926110ae565b611402838361108e565b5261108e565b515061142c600582018a61141c87926110ae565b611426838361108e565b5261108e565b5150018961143a84926110ae565b611444838361108e565b5261108e565b5150388b611346565b5092949350949590919695949392919695949392919056fea26469706673582212203540486596d1e2c4d4365595750c9a05177f8c1ae693536c5e10c56828797c1164736f6c63430008150033",
  "immutableReferences": {},
  "source": "// SPDX-License-Identifier: MIT\r\npragma solidity ^0.8.21;\r\n\r\ncontract FileRequest {\r\n    struct FileUpload {\r\n        uint256 id;\r\n        string useremail;\r\n        string textcontent;\r\n        string filekey;\r\n        string datetime;\r\n        string encfilepath;\r\n        string decfilepath;\r\n    }\r\n    mapping(address => FileUpload[]) public fileStore;\r\n\r\n    function addFiles(\r\n        string memory _useremail,\r\n        string memory _textcontent,\r\n        string memory _filekey,\r\n        string memory _datetime,\r\n        string memory _encfilepath,\r\n        string memory _decfilepath\r\n    ) public {\r\n        uint256 index = fileStore[msg.sender].length + 1;\r\n        FileUpload memory _newFile = FileUpload(\r\n            index,\r\n            _useremail,\r\n            _textcontent,\r\n            _filekey,\r\n            _datetime,\r\n            _encfilepath,\r\n            _decfilepath\r\n        );\r\n        fileStore[msg.sender].push(_newFile);\r\n    }\r\n\r\n    function viewFiles(string memory _email)\r\n        public\r\n        view\r\n        returns (\r\n            uint256[] memory,\r\n            string[] memory,\r\n            string[] memory,\r\n            string[] memory,\r\n            string[] memory,\r\n            string[] memory,\r\n            string[] memory\r\n        )\r\n    {\r\n        uint256 count = 0;\r\n        for (uint256 i = 0; i < fileStore[msg.sender].length; i++) {\r\n            FileUpload storage file = fileStore[msg.sender][i];\r\n            if (\r\n                keccak256(abi.encode(_email)) !=\r\n                keccak256(abi.encode(file.useremail))\r\n            ) {\r\n                count++;\r\n            }\r\n        }\r\n\r\n        uint256[] memory __id = new uint256[](count);\r\n        string[] memory _useremail = new string[](count);\r\n        string[] memory _textcontent = new string[](count);\r\n        string[] memory _filekey = new string[](count);\r\n        string[] memory _datetime = new string[](count);\r\n        string[] memory _encfilepath = new string[](count);\r\n        string[] memory _decfilepath = new string[](count);\r\n\r\n\r\n        for (uint256 i = 0; i < fileStore[msg.sender].length; i++) {\r\n            FileUpload storage file = fileStore[msg.sender][i];\r\n            if (\r\n                keccak256(abi.encode(_email)) !=\r\n                keccak256(abi.encode(file.useremail))\r\n            ) {\r\n                __id[i] = file.id;\r\n                _useremail[i] = file.useremail;\r\n                _textcontent[i] = file.textcontent;\r\n                _filekey[i] = file.filekey;\r\n                _datetime[i] = file.datetime;\r\n                _encfilepath[i] = file.encfilepath;\r\n                _decfilepath[i] = file.decfilepath;\r\n            }\r\n        }\r\n        return (\r\n            __id,\r\n            _useremail,\r\n            _textcontent,\r\n            _filekey,\r\n            _datetime,\r\n            _encfilepath,\r\n            _decfilepath\r\n        );\r\n    }\r\n\r\n    \r\n}\r\n",
  "sourcePath": "C:\\Users\\dheve\\OneDrive\\Desktop\\Code (2)\\Code\\Code\\Blocks\\contracts\\FileRequest.sol",
  "compiler": {
    "name": "solc",
    "version": "0.8.21+commit.d9974bed.Emscripten.clang"
  },
  "schemaVersion": "3.4.16",
  "updatedAt": "2025-10-26T13:28:48.785Z",
  "networkType": "ethereum",
  "devdoc": {
    "kind": "dev",
    "methods": {},
    "version": 1
  },
  "userdoc": {
    "kind": "user",
    "methods": {},
    "version": 1
  }
}