{
  "contractName": "UserContract",
  "abi": [
    {
      "inputs": [
        {
          "internalType": "address",
          "name": "",
          "type": "address"
        },
        {
          "internalType": "uint256",
          "name": "",
          "type": "uint256"
        }
      ],
      "name": "usersStore",
      "outputs": [
        {
          "internalType": "uint256",
          "name": "id",
          "type": "uint256"
        },
        {
          "internalType": "string",
          "name": "name",
          "type": "string"
        },
        {
          "internalType": "string",
          "name": "email",
          "type": "string"
        },
        {
          "internalType": "string",
          "name": "password",
          "type": "string"
        },
        {
          "internalType": "string",
          "name": "contact",
          "type": "string"
        },
        {
          "internalType": "string",
          "name": "addresses",
          "type": "string"
        },
        {
          "internalType": "string",
          "name": "status",
          "type": "string"
        }
      ],
      "stateMutability": "view",
      "type": "function",
      "constant": true
    },
    {
      "inputs": [
        {
          "internalType": "string",
          "name": "_name",
          "type": "string"
        },
        {
          "internalType": "string",
          "name": "_email",
          "type": "string"
        },
        {
          "internalType": "string",
          "name": "_password",
          "type": "string"
        },
        {
          "internalType": "string",
          "name": "_contact",
          "type": "string"
        },
        {
          "internalType": "string",
          "name": "_addresses",
          "type": "string"
        },
        {
          "internalType": "string",
          "name": "_status",
          "type": "string"
        }
      ],
      "name": "AddUsers",
      "outputs": [
        {
          "internalType": "bool",
          "name": "",
          "type": "bool"
        }
      ],
      "stateMutability": "nonpayable",
      "type": "function"
    },
    {
      "inputs": [
        {
          "internalType": "string",
          "name": "_email",
          "type": "string"
        }
      ],
      "name": "checkEmail",
      "outputs": [
        {
          "internalType": "string",
          "name": "",
          "type": "string"
        }
      ],
      "stateMutability": "view",
      "type": "function",
      "constant": true
    },
    {
      "inputs": [
        {
          "internalType": "string",
          "name": "_email",
          "type": "string"
        },
        {
          "internalType": "string",
          "name": "_password",
          "type": "string"
        }
      ],
      "name": "loginFunction",
      "outputs": [
        {
          "internalType": "uint256",
          "name": "",
          "type": "uint256"
        },
        {
          "internalType": "string",
          "name": "",
          "type": "string"
        },
        {
          "internalType": "string",
          "name": "",
          "type": "string"
        },
        {
          "internalType": "string",
          "name": "",
          "type": "string"
        },
        {
          "internalType": "string",
          "name": "",
          "type": "string"
        },
        {
          "internalType": "string",
          "name": "",
          "type": "string"
        }
      ],
      "stateMutability": "view",
      "type": "function",
      "constant": true
    },
    {
      "inputs": [
        {
          "internalType": "string",
          "name": "__status",
          "type": "string"
        }
      ],
      "name": "getUsersActivated",
      "outputs": [
        {
          "internalType": "uint256[]",
          "name": "",
          "type": "uint256[]"
        },
        {
          "internalType": "string[]",
          "name": "",
          "type": "string[]"
        },
        {
          "internalType": "string[]",
          "name": "",
          "type": "string[]"
        },
        {
          "internalType": "string[]",
          "name": "",
          "type": "string[]"
        },
        {
          "internalType": "string[]",
          "name": "",
          "type": "string[]"
        },
        {
          "internalType": "string[]",
          "name": "",
          "type": "string[]"
        }
      ],
      "stateMutability": "view",
      "type": "function",
      "constant": true
    },
    {
      "inputs": [
        {
          "internalType": "uint256",
          "name": "_id",
          "type": "uint256"
        },
        {
          "internalType": "string",
          "name": "_status",
          "type": "string"
        }
      ],
      "name": "upldateState",
      "outputs": [],
      "stateMutability": "nonpayable",
      "type": "function"
    }
  ],
  "bytecode": "0x60806040523461001f57610011610024565b611b686100308239611b6890f35b61002a565b60405190565b600080fdfe60806040526004361015610013575b610b7e565b61001e60003561007d565b8063160ffc3d146100785780632552bf0e1461007357806365d8bc3b1461006e57806375e3348b14610069578063b09e523a146100645763cac6f04b0361000e57610b41565b610780565b610669565b610468565b610318565b610270565b7c0100000000000000000000000000000000000000000000000000000000900490565b60405190565b600080fd5b600080fd5b600080fd5b600080fd5b600080fd5b601f801991011690565b7f4e487b7100000000000000000000000000000000000000000000000000000000600052604160045260246000fd5b90610102906100bf565b810190811067ffffffffffffffff82111761011c57604052565b6100c9565b9061013461012d6100a0565b92836100f8565b565b67ffffffffffffffff8111610154576101506020916100bf565b0190565b6100c9565b90826000939282370152565b9092919261017a61017582610136565b610121565b938185526020850190828401116101965761019492610159565b565b6100ba565b9080601f830112156101b9578160206101b693359101610165565b90565b6100b5565b906020828203126101ef57600082013567ffffffffffffffff81116101ea576101e7920161019b565b90565b6100b0565b6100ab565b5190565b60209181520190565b60005b838110610215575050906000910152565b806020918301518185015201610204565b61024561024e6020936102539361023c816101f4565b938480936101f8565b95869101610201565b6100bf565b0190565b61026d9160208201916000818403910152610226565b90565b346102a05761029c61028b6102863660046101be565b61127b565b6102936100a0565b91829182610257565b0390f35b6100a6565b90565b6102b1816102a5565b036102b857565b600080fd5b905035906102ca826102a8565b565b91909160408184031261030d576102e683600083016102bd565b92602082013567ffffffffffffffff811161030857610305920161019b565b90565b6100b0565b6100ab565b60000190565b346103475761033161032b3660046102cc565b90611a8f565b6103396100a0565b8061034381610312565b0390f35b6100a6565b9160c08383031261043b57600083013567ffffffffffffffff8111610436578261037791850161019b565b92602081013567ffffffffffffffff8111610431578361039891830161019b565b92604082013567ffffffffffffffff811161042c57816103b991840161019b565b92606083013567ffffffffffffffff811161042757826103da91850161019b565b92608081013567ffffffffffffffff811161042257836103fb91830161019b565b9260a082013567ffffffffffffffff811161041d5761041a920161019b565b90565b6100b0565b6100b0565b6100b0565b6100b0565b6100b0565b6100b0565b6100ab565b151590565b61044e90610440565b9052565b919061046690600060208501940190610445565b565b3461049f5761049b61048a61047e36600461034c565b94939093929192610fe3565b6104926100a0565b91829182610452565b0390f35b6100a6565b5190565b60209181520190565b60200190565b6104c0906102a5565b9052565b906104d1816020936104b7565b0190565b60200190565b906104f86104f26104eb846104a4565b80936104a8565b926104b1565b9060005b8181106105095750505090565b90919261052261051c60019286516104c4565b946104d5565b91019190916104fc565b5190565b60209181520190565b60200190565b60209181520190565b6105676105706020936105759361055e816101f4565b9384809361053f565b95869101610201565b6100bf565b0190565b9061058391610548565b90565b60200190565b906105a06105998361052c565b8092610530565b90816105b160208302840194610539565b926000915b8383106105c557505050505090565b909192939460206105e76105e183856001950387528951610579565b97610586565b93019301919392906105b6565b94919361063c6106589461062e610666999761062061064a9660c08c01908c60008184039101526104db565b908a820360208c015261058c565b9088820360408a015261058c565b90868203606088015261058c565b90848203608086015261058c565b9160a081840391015261058c565b90565b346106a05761069c61068461067f3660046101be565b61181e565b926106939694969291926100a0565b968796876105f4565b0390f35b6100a6565b9190916040818403126106fe57600081013567ffffffffffffffff81116106f957836106d291830161019b565b92602082013567ffffffffffffffff81116106f4576106f1920161019b565b90565b6100b0565b6100b0565b6100ab565b61070c906102a5565b9052565b94919361075361076f946107456107619461077d9a9861073860c08c019260008d0190610703565b8a820360208c0152610226565b9088820360408a0152610226565b908682036060880152610226565b908482036080860152610226565b9160a0818403910152610226565b90565b346107b8576107b461079c6107963660046106a5565b906113e1565b926107ab9694969291926100a0565b96879687610710565b0390f35b6100a6565b73ffffffffffffffffffffffffffffffffffffffff1690565b6107df906107bd565b90565b6107eb816107d6565b036107f257565b600080fd5b90503590610804826107e2565b565b919060408382031261082f578061082361082c92600086016107f7565b936020016102bd565b90565b6100ab565b90565b61084b610846610850926107bd565b610834565b6107bd565b90565b61085c90610837565b90565b61086890610853565b90565b906108759061085f565b600052602052604060002090565b7f4e487b7100000000000000000000000000000000000000000000000000000000600052603260045260246000fd5b5490565b600052602060002090565b6108ca816108b2565b8210156108e5576108dc6007916108b6565b91020190600090565b610883565b6001900490565b90565b610900610905916108ea565b6108f1565b90565b61091290546108f4565b90565b7f4e487b7100000000000000000000000000000000000000000000000000000000600052602260045260246000fd5b9060016002830492168015610964575b602083101461095f57565b610915565b91607f1691610954565b600052602060002090565b906000929180549061099461098d83610944565b809461053f565b916001811690816000146109ed57506001146109b0575b505050565b6109bd919293945061096e565b916000925b8184106109d557505001903880806109ab565b600181602092959395548486015201910192906109c2565b92949550505060ff19168252151560200201903880806109ab565b90610a1291610979565b90565b90610a35610a2e92610a256100a0565b93848092610a08565b03836100f8565b565b610a4290600061086b565b90610a4c826108b2565b811015610ab957610a5c916108c1565b50610a6960008201610908565b91610a7660018301610a15565b91610a8360028201610a15565b91610a9060038301610a15565b91610a9d60048201610a15565b91610ab66006610aaf60058501610a15565b9301610a15565b90565b600080fd5b9592610b3094610b06610b1492610af88a610b2297610aea610b3e9e9c98600060e08501940190610703565b8c6020818403910152610226565b908a820360408c0152610226565b9088820360608a0152610226565b908682036080880152610226565b9084820360a0860152610226565b9160c0818403910152610226565b90565b34610b7957610b75610b5d610b57366004610806565b90610a37565b93610b6c9795979391936100a0565b97889788610abe565b0390f35b6100a6565b600080fd5b600090565b90565b610b9f610b9a610ba492610b88565b610834565b6102a5565b90565b7f4e487b7100000000000000000000000000000000000000000000000000000000600052601160045260246000fd5b610be5610beb919392936102a5565b926102a5565b8201809211610bf657565b610ba7565b90565b610c0860e0610121565b90565b90610c15906102a5565b9052565b52565b600052602060002090565b5490565b610c3481610c27565b821015610c4f57610c46600791610c1c565b91020190600090565b610883565b7f4e487b7100000000000000000000000000000000000000000000000000000000600052600060045260246000fd5b610c8d90516102a5565b90565b60010290565b90610ca360001991610c90565b9181191691161790565b610cc1610cbc610cc6926102a5565b610834565b6102a5565b90565b90565b90610ce1610cdc610ce892610cad565b610cc9565b8254610c96565b9055565b5190565b601f602091010490565b60020a0290565b91906008610d1d910291610d1760001984610cfa565b92610cfa565b9181191691161790565b9190610d3d610d38610d4593610cad565b610cc9565b908354610d01565b9055565b600090565b610d6091610d5a610d49565b91610d27565b565b5b818110610d6e575050565b80610d7c6000600193610d4e565b01610d63565b9190601f8111610d92575b505050565b610d9e610dc39361096e565b906020610daa84610cf0565b83019310610dcb575b610dbc90610cf0565b0190610d62565b388080610d8d565b9150610dbc81929050610db3565b60020a900490565b90610df29060001990600802610dd9565b191690565b81610e0191610de1565b906002021790565b90610e13816101f4565b9067ffffffffffffffff8211610ed557610e3782610e318554610944565b85610d82565b602090601f8311600114610e6c57918091610e5b93600092610e60575b5050610df7565b90555b565b90915001513880610e54565b601f19831691610e7b8561096e565b9260005b818110610ebd57509160029391856001969410610ea3575b50505002019055610e5e565b610eb3910151601f841690610de1565b9055388080610e97565b91936020600181928787015181550195019201610e7f565b6100c9565b90610ee491610e09565b565b90610f9060c06006610f9694610f0b60008201610f0560008801610c83565b90610ccc565b610f2460018201610f1e60208801610cec565b90610eda565b610f3d60028201610f3760408801610cec565b90610eda565b610f5660038201610f5060608801610cec565b90610eda565b610f6f60048201610f6960808801610cec565b90610eda565b610f8860058201610f8260a08801610cec565b90610eda565b019201610cec565b90610eda565b565b9190610fa957610fa791610ee6565b565b610c54565b9081549168010000000000000000831015610fde5782610fd6916001610fdc95018155610c2b565b90610f98565b565b6100c9565b939092949194610ff1610b83565b50600033610ffe9161086b565b611007906108b2565b600161101290610b8b565b61101b91610bd6565b956000336110289161086b565b61103190610bfb565b9695949091929394611041610bfe565b96600088019061105091610c0b565b602087019061105e91610c19565b604086019061106c91610c19565b606085019061107a91610c19565b608084019061108891610c19565b60a083019061109691610c19565b60c08201906110a491610c19565b6110ad91610fae565b600190565b606090565b90565b6110ce6110c96110d3926110b7565b610834565b6102a5565b90565b6110df906102a5565b60001981146110ee5760010190565b610ba7565b6110fd60e0610121565b90565b906111b16111a860066111116110f3565b9461112a61112160008301610908565b60008801610c0b565b61114261113960018301610a15565b60208801610c19565b61115a61115160028301610a15565b60408801610c19565b61117261116960038301610a15565b60608801610c19565b61118a61118160048301610a15565b60808801610c19565b6111a261119960058301610a15565b60a08801610c19565b01610a15565b60c08401610c19565b565b6111bc90611100565b90565b60200190565b5190565b90565b906111de6111d983610136565b610121565b918252565b60007f656d61696c20616c726561647920657869737473000000000000000000000000910152565b61121560146111cc565b90611222602083016111e3565b565b61122c61120b565b90565b60007f5375636365737300000000000000000000000000000000000000000000000000910152565b61126160076111cc565b9061126e6020830161122f565b565b611278611257565b90565b6112836110b2565b5061128e60006110ba565b5b806112b56112af6112aa6112a56000339061086b565b6108b2565b6102a5565b916102a5565b1015611388576112f861130760406112e26112dc6112d56000339061086b565b86906108c1565b506111b3565b01516112ec6100a0565b92839160208301610257565b602082018103825203826100f8565b611319611313826111c5565b916111bf565b2061136861136261133b61134a8661132f6100a0565b92839160208301610257565b602082018103825203826100f8565b61135c611356826111c5565b916111bf565b206111c9565b916111c9565b1461137b57611376906110d6565b61128f565b5050611385611224565b90565b5050611392611270565b90565b60007f496e76616c696420557365727300000000000000000000000000000000000000910152565b6113c7600d6111cc565b906113d460208301611395565b565b6113de6113bd565b90565b916113ea610d49565b506113f36110b2565b506113fc6110b2565b506114056110b2565b5061140e6110b2565b506114176110b2565b5061142260006110ba565b5b8061144961144361143e6114396000339061086b565b6108b2565b6102a5565b916102a5565b10156115fb5761146e6114686114616000339061086b565b83906108c1565b506111b3565b61148d61149c60408301516114816100a0565b92839160208301610257565b602082018103825203826100f8565b6114ae6114a8826111c5565b916111bf565b206114fd6114f76114d06114df896114c46100a0565b92839160208301610257565b602082018103825203826100f8565b6114f16114eb826111c5565b916111bf565b206111c9565b916111c9565b1461151d61152c60608401516115116100a0565b92839160208301610257565b602082018103825203826100f8565b61153e611538826111c5565b916111bf565b2061158d61158761156061156f896115546100a0565b92839160208301610257565b602082018103825203826100f8565b61158161157b826111c5565b916111bf565b206111c9565b916111c9565b14816115f3575b506115a857506115a3906110d6565b611423565b93506115cd9192506115c66000916115c183339061086b565b6108c1565b5001610908565b9060208301519260408101519260808201519260c060a084015193015191959493929190565b905038611594565b5091505061160960006110ba565b906116126113d6565b9061161b6113d6565b906116246113d6565b9061162d6113d6565b906116366113d6565b90565b606090565b606090565b67ffffffffffffffff811161165b5760208091020190565b6100c9565b9061167261166d83611643565b610121565b918252565b369037565b906116a161168983611660565b926020806116978693611643565b9201910390611677565b565b67ffffffffffffffff81116116bb5760208091020190565b6100c9565b906116d26116cd836116a3565b610121565b918252565b606090565b60005b8281106116eb57505050565b6020906116f66116d7565b81840152016116df565b9061172561170d836116c0565b9260208061171b86936116a3565b92019103906116dc565b565b90565b906000929180549061174561173e83610944565b80946101f8565b9160018116908160001461179e5750600114611761575b505050565b61176e919293945061096e565b916000925b818410611786575050019038808061175c565b60018160209295939554848601520191019290611773565b92949550505060ff191682521515602002019038808061175c565b6117cf916020820191600081840391015261172a565b90565b906117dc826104a4565b8110156117ed576020809102010190565b610883565b906117fc8261052c565b81101561180d576020809102010190565b610883565b61181b90610a15565b90565b90611827611639565b5061183061163e565b5061183961163e565b5061184261163e565b5061184b61163e565b5061185461163e565b506118696118646000339061086b565b6108b2565b916118738361167c565b9061187d84611700565b9061188785611700565b9061189186611700565b926118a461189e88611700565b97611700565b936118af60006110ba565b5b806118d66118d06118cb6118c66000339061086b565b6108b2565b6102a5565b916102a5565b1015611a7a57611999906118ff6118f96118f26000339061086b565b83906108c1565b50611727565b61191a6119298761190e6100a0565b92839160208301610257565b602082018103825203826100f8565b61193b611935826111c5565b916111bf565b2061198d61198761196061196f600686016119546100a0565b928391602083016117b9565b602082018103825203826100f8565b61198161197b826111c5565b916111bf565b206111c9565b916111c9565b1461199e575b506110d6565b6118b0565b6006816119c56119b36000611a729501610908565b6119c08d918790926117d2565b610c0b565b6119e760018201886119d78792611812565b6119e183836117f2565b526117f2565b5150611a0b600282018a6119fb8792611812565b611a0583836117f2565b526117f2565b5150611a2f6004820187611a1f8792611812565b611a2983836117f2565b526117f2565b5150611a548d6005830190611a448792611812565b611a4e83836117f2565b526117f2565b51500188611a628492611812565b611a6c83836117f2565b526117f2565b515038611993565b50959150919593919594939291959493929190565b90611a9a60006110ba565b5b80611ac1611abb611ab6611ab16000339061086b565b6108b2565b6102a5565b916102a5565b1015611b2d57611b1490611aea611ae4611add6000339061086b565b83906108c1565b50611727565b611af660008201610908565b611b08611b02876102a5565b916102a5565b14611b19575b506110d6565b611a9b565b611b27906006859101610eda565b38611b0e565b50505056fea26469706673582212203d4a89ecd2ed49b58390d4a9ab1c5214da33d598a3a3b5e4dfe181a0aa61e6c564736f6c63430008150033",
  "immutableReferences": {},
  "source": "// SPDX-License-Identifier: MIT\r\npragma solidity ^0.8.21;\r\n\r\ncontract UserContract {\r\n    struct Users {\r\n        uint256 id;\r\n        string name;\r\n        string email;\r\n        string password;\r\n        string contact;\r\n        string addresses;\r\n        string status;\r\n    }\r\n    mapping(address => Users[]) public usersStore;\r\n\r\n    function AddUsers(\r\n        string memory _name,\r\n        string memory _email,\r\n        string memory _password,\r\n        string memory _contact,\r\n        string memory _addresses,\r\n        string memory _status\r\n    ) public returns (bool) {\r\n        uint256 index = usersStore[msg.sender].length + 1;\r\n\r\n        usersStore[msg.sender].push(\r\n            Users(\r\n                index,\r\n                _name,\r\n                _email,\r\n                _password,\r\n                _contact,\r\n                _addresses,\r\n                _status\r\n            )\r\n        );\r\n        return (true);\r\n    }\r\n\r\n    function checkEmail(string memory _email)\r\n        public\r\n        view\r\n        returns (string memory)\r\n    {\r\n        for (uint256 i = 0; i < usersStore[msg.sender].length; i++) {\r\n            Users memory usersPoint = usersStore[msg.sender][i];\r\n            if (\r\n                keccak256(abi.encode(usersPoint.email)) ==\r\n                keccak256(abi.encode(_email))\r\n            ) {\r\n                return (\"email already exists\");\r\n            }\r\n        }\r\n        return (\"Success\");\r\n    }\r\n\r\n    function loginFunction(string memory _email, string memory _password)\r\n        public\r\n        view\r\n        returns (\r\n            uint256,\r\n            string memory,\r\n            string memory,\r\n            string memory,\r\n            string memory,\r\n            string memory\r\n        )\r\n    {\r\n        for (uint256 i = 0; i < usersStore[msg.sender].length; i++) {\r\n            Users memory userPoint = usersStore[msg.sender][i];\r\n            bool email = keccak256(abi.encode(userPoint.email)) ==\r\n                keccak256(abi.encode(_email));\r\n            bool password = keccak256(abi.encode(userPoint.password)) ==\r\n                keccak256(abi.encode(_password));\r\n\r\n            if (email && password) {\r\n                return (\r\n                    usersStore[msg.sender][i].id,\r\n                    userPoint.name,\r\n                    userPoint.email,\r\n                    userPoint.contact,\r\n                    userPoint.addresses,\r\n                    userPoint.status\r\n                );\r\n            }\r\n        }\r\n        return (\r\n            0,\r\n            \"Invalid Users\",\r\n            \"Invalid Users\",\r\n            \"Invalid Users\",\r\n            \"Invalid Users\",\r\n            \"Invalid Users\"\r\n        );\r\n    }\r\n\r\n    function getUsersActivated(string memory __status)\r\n        public\r\n        view\r\n        returns (\r\n            uint256[] memory,\r\n            string[] memory,\r\n            string[] memory,\r\n            string[] memory,\r\n            string[] memory,\r\n            string[] memory\r\n        )\r\n    {\r\n        uint256 index = usersStore[msg.sender].length;\r\n        uint256[] memory id = new uint256[](index);\r\n        string[] memory _name = new string[](index);\r\n        string[] memory _email = new string[](index);\r\n        string[] memory _contact = new string[](index);\r\n        string[] memory _addresses = new string[](index);\r\n        string[] memory _status = new string[](index);\r\n\r\n        for (uint256 i = 0; i < usersStore[msg.sender].length; i++) {\r\n            Users storage user = usersStore[msg.sender][i];\r\n            if (\r\n                keccak256(abi.encode(__status)) ==\r\n                keccak256(abi.encode(user.status))\r\n            ) {\r\n                id[i] = user.id;\r\n                _name[i] = user.name;\r\n                _email[i] = user.email;\r\n                _contact[i] = user.contact;\r\n                _addresses[i] = user.addresses;\r\n                _status[i] = user.status;\r\n            }\r\n        }\r\n        return (id, _name, _email, _contact, _addresses, _status);\r\n    }\r\n    \r\n\r\n    function upldateState(uint256 _id, string memory _status)\r\n        public\r\n    {\r\n        for (uint256 i = 0; i < usersStore[msg.sender].length; i++) {\r\n            Users storage user = usersStore[msg.sender][i];\r\n            if (user.id == _id) {\r\n                user.status = _status;\r\n            }\r\n        }\r\n    }\r\n}\r\n",
  "sourcePath": "C:\\Users\\dheve\\OneDrive\\Desktop\\Code (2)\\Code\\Code\\Blocks\\contracts\\UserContract.sol",
  "compiler": {
    "name": "solc",
    "version": "0.8.21+commit.d9974bed.Emscripten.clang"
  },
  "schemaVersion": "3.4.16",
  "updatedAt": "2025-10-26T13:28:48.644Z",
  "networkType": "ethereum",
  "devdoc": {
    "kind": "dev",
    "methods": {},
    "version": 1
  },
  "userdoc": {
    "kind": "user",
    "methods": {},
    "version": 1
  }
}